:020000040000FA
:020000003E2898
:040002000034003492
:080008002008A2000B181A28C1
:100010000B190B2809000B118518851005190511FE
:1000200009002208A006A200A218851422190515AD
:1000300033200900051406087039A1001F28211B70
:10004000A11A2F283128A11A211A27282B28A010FD
:100050000B1011280900A0140B1011280900201101
:1000600023282015232881019C3081000800850168
:100070008601A001A201051408003D288316E03086
:100080008500FF30860091308100A8308B008312FC
:080090003720200885003D28FF
:02400E00333F3E
:00000001FF
