:020000040000FA
:020000003D2899
:040002000034003492
:080008002008A2000B181928C2
:100010000B190B2809000B118518851005190511FE
:1000200009002008A206A2188514221905153220FD
:100030000900051406087039A1001E28211BA11A09
:100040002E283028A11A211A26282A28A0100B10A1
:1000500011280900A0140B101128090020112228D2
:10006000201522288101FB308100080085018601CE
:10007000A001A201051408003C288316E030850089
:10008000FF30860091308100A8308B00831236202B
:06009000200885003C2859
:02400E00333F3E
:00000001FF
