:020000040000FA
:020000003F2897
:040002000034003492
:080008002008A2000B181A28C1
:100010000B190B2809000B118518851005190511FE
:100020008B1509002008A206A218851422190515AF
:1000300033200900051406087039A1001F28211B70
:10004000A11A2F283128A11A211A27282B28A010FD
:100050000B1012280900A0140B10122809002011FF
:100060002328201523288B118101FB3081000800F3
:1000700085018601A001A201051408003E2883160F
:10008000E0308500FF30860091308100A8308B0081
:0A00900083123820200885003E2866
:02400E00333F3E
:00000001FF
